:1000000045C09AC180C07FC07EC07DC07CC07BC01F
:100010007AC079C078C077C076C075C074C073C02C
:1000200072C071C070C00902120001010080320963
:10003000040000000000000012011001FF00000891
:10004000C016DC05010001020301160342006F0027
:100050006F0074006C006F00610064006500720046
:100060000A0375004900530050001E037700770013
:1000700077002E006E00630072006D006E00740049
:100080002E006F00720067000403090411241FBED4
:10009000CFE5D4E0DEBFCDBF10E0A0E6B0E0ECE3FA
:1000A000F6E002C005900D92AA36B107D9F710E02C
:1000B000AAE6B0E001C01D92AA39B107E1F7F894B1
:1000C0007894A29A85B3876085BBA5D215D103C069
:1000D0001BD0999B04C0809162008823C9F7AA981D
:1000E0009AD2F89481E180935700E8951BBE15BE23
:1000F00013BE81E08BBF1BBEE0916E00F0916F00DC
:10010000099596D298C27CCFCF93DF9380918000DF
:10011000835087FD9BC020917D0090917C009D3293
:1001200009F092C0883009F08FC08CE090E0821B0B
:100130009109EC01CC57DF4F23EC209370002AE5A6
:100140002093600010926A002881207619F0CE0179
:1001500020D271C03A81109279002981222331F492
:1001600010927A0029E730E082E061C0253019F46E
:100170003093810052C0263009F046C0FC01EA5796
:10018000FF4F208189579F4FFC018081813019F4F6
:1001900088E390E004C0823041F486E290E09093DE
:1001A0007F0080937E0082E12BC0833041F52223C3
:1001B00041F488E890E090937F0080937E0084E093
:1001C0001FC0213041F48AE690E090937F00809335
:1001D0007E008EE115C0223041F480E690E09093DD
:1001E0007F0080937E008AE00BC0233041F48AE4D4
:1001F00090E090937F0080937E0086E101C080E0D4
:1002000090E490936A0017C0283059F0293019F40F
:100210003093830002C02A3039F029E730E080E0D3
:1002200006C023E830E002C029E730E081E03093E7
:100230007F0020937E009F81992321F49E8198174F
:1002400008F4892F809361001092800080916000F3
:1002500084FF45C0809161008F3F09F440C0C82FE2
:10026000893008F0C8E08C1B809361008091700099
:1002700098E8892780937000CC2329F180917E0033
:1002800090917F0020916A0026FF0AC0FC012C2F6C
:10029000A1E7B0E034913D9331962150D9F708C0E1
:1002A000DC012C2FE1E7F0E03D9131932150E1F7A3
:1002B0002C2F215030E02F5F3F4F280F391F3093F4
:1002C0007F0020937E0081E790E06C2F31D0CC5FDF
:1002D000CC3019F08FEF80936100C093600084E10F
:1002E00090B3947131F48150D9F71092810010923B
:1002F0007B00DF91CF91089585B7826085BF8BB772
:1003000080648BBF0895A82FB92F80E090E041E072
:1003100050EA609530E009C02D9182279795879526
:1003200010F084279527305EC8F36F5FA8F3089517
:10033000EADF8D939D930895CF93CFB7CF93C39565
:10034000829BE9F7829B09C0829B07C0829B05C004
:10035000829B03C0829B01C0A1C0DF93C0917D003E
:10036000DD27CC57DF4F829B02C0DF91EBCF2F936D
:100370000F931F9300B32FEF02FB20F94F933F938E
:1003800010B34FEF012702FB21F93BE031C04E7F54
:10039000012F10B3216028C0102F4D7F2260000074
:1003A00000B329C04B7F2460012F000010B32BC085
:1003B00010B3477F28602AC04F7E00B320612CC055
:1003C0004F7D10B320622FC04F7B00B3206432C03A
:1003D000422700B349934FEF0000102712FB20F98A
:1003E00010B31471C9F1297F91F2012702FB21F9A1
:1003F00000B3237F89F2315058F1102712FB22F904
:1004000010B3277E79F2012702FB23F92F7C81F2BA
:1004100000B3102712FB24F92F7971F200C010B33A
:10042000012702FB25F92F7359F200C000B31027F2
:1004300012FB26F9223040F200C010B3012702FB64
:1004400027F9243028F64F77206810B30000F9CF41
:1004500010E41ABF002717C03B503195C31BD04092
:1004600010E41ABF0881033CE9F00B34D9F0209165
:100470007B001981110F1213EDCF093641F10D32B6
:1004800011F0013E39F7009382003F914F911F9187
:100490000F912F91DF91CAB7C6FD51CFCF91CFBF3A
:1004A000CF91189520918200222379F3109180003A
:1004B000112311F5343012F13093800020937C0029
:1004C00010917D003BE0311B30937D0017C00091FF
:1004D000800001308CF40AE53091600034FD10C0DA
:1004E00000936000C0E7D0E00FC02795A8F45150FA
:1004F000A9F4220F0000F9CF4AE503C042ED01C084
:10050000432FC4E1D0E032E011B31461929A11BBE1
:1005100002B320E414E15F93012756E002BB279564
:1005200020F4515021F4220FF9CF012756E00000AA
:100530003B5A02BBD0F2279528F4515029F4220FE0
:100540000000F9CF012756E0279502BB20F4515057
:1005500021F4220FF9CF012756E02991332302BB62
:1005600021F60B7E10918100110FC651D04002BBC5
:1005700011F010937B0010E41ABF046011B31B7ECE
:10058000402F4B7E5F9100C000C002BB11BB42BB3D
:100590007CCFFC018181893059F48281823021F441
:1005A00010926B008FEF08951092620080E0089522
:1005B000813041F483E690E090937F0080937E0049
:1005C00087E0089580E00895DC01E0916C00F091EF
:1005D0006D0080916B00882341F41196EC91119786
:1005E0001296FC91129714966450860F80936B00BC
:1005F000807891E0F8942D913D91090190935700F6
:10060000E8951124789432966250A1F7F0936D002A
:10061000E0936C0008958FEF81BB84EC99E02CE2AD
:1006200031E0F9013197F1F70197D9F711BA08953F
:0C06300080E090E0089545CDF894FFCFE5
:0A063C005AFF0101400000200000F9
:00000001FF
